:020000040000FA
:060000006EEF00F012009B
:020006000000F8
:060008009EBA50D0120068
:02000E00060EDC
:10001000F66E000EF76E000EF86E00010900F55046
:10002000856F0900F550866F03E1856701D03DD0EB
:100030000900F550806F0900F550816F0900F550F7
:10004000826F09000900F550E96E0900F550EA6E6B
:10005000090009000900F550836F0900F550846F0D
:1000600009000900F6CF87F0F7CF88F0F8CF89F0C4
:1000700080C0F6FF81C0F7FF82C0F8FF0001835304
:1000800002E1845307E00900F550EE6E8307F8E2C1
:100090008407F9D787C0F6FF88C0F7FF89C0F8FF4B
:0C00A00000018507000E865BBFD7120030
:0400AC00DACFE4FFC4
:1000B000E652AE28AD6E8A70E552E5CFDAFF110048
:1000C000949C9390240EAC6E900EAB6E190EAF6E96
:0C00D0009D8AC00EF26E1200F3DFFFD715
:0400DC0014EE00F02E
:1000E00024EE00F0F86A019C07EC00F083EC00F0CD
:0800F0006CEC00F0FBD71200DC
:0800F80000EE00F00F0EEE6AAD
:06010000EA62FDD71200C7
:020106001200E5
:020000040030CA
:0100010001FD
:0100020018E5
:010003001EDE
:010005008377
:0100060001F8
:00000001FF
