:020000040000FA
:0600000077EF00F0120092
:020006000000F8
:08000800DACFE4FFE6529E92FC
:1000100000018A5112E1BB50006E016AD890015074
:1000200004E6FF0E005C000E015802E2BB2A0CD071
:10003000300EBA12010E8A6F07D0BB5002E0BB0629
:1000400003D00C0EBA6E8A6BE552E5CFDAFF1100D1
:10005000060EF66E000EF76E000EF86E0001090037
:10006000F550856F0900F550866F03E1856701D073
:100070003DD00900F550806F0900F550816F0900EF
:10008000F550826F09000900F550E96E0900F5503E
:10009000EA6E090009000900F550836F0900F55068
:1000A000846F09000900F6CF87F0F7CF88F0F8CF0A
:1000B00089F080C0F6FF81C0F7FF82C0F8FF000121
:1000C000835302E1845307E00900F550EE6E830785
:1000D000F8E28407F9D787C0F6FF88C0F7FF89C028
:0E00E000F8FF00018507000E865BBFD71200F7
:0200EE0014EE0E
:1000F00000F024EE00F0F86A039C28EC00F098EC85
:0A01000000F085EC00F0FBD71200C0
:06010A000F0EC16E936AA6
:100110003C0ECA6E0C0EBA6EC00EF26E020E9D6ED2
:02012000FFD707
:0E01220000EE00F00F0EEE6AEA62FDD712004A
:020130001200BB
:020000040030CA
:0100010001FD
:0100020018E5
:010003001EDE
:010005008278
:010006008178
:00000001FF
