:020000040000FA
:06000000A9EF00F0120060
:020006001200E6
:06000800A1B857D0120060
:02000E000100EF
:0C0010007C0100008A00000005000000D8
:04001C000E0EF66E60
:10002000000EF76E000EF86E00010900F550856FA6
:100030000900F550866F03E1856701D03DD00900C6
:10004000F550806F0900F550816F0900F550826FFF
:1000500009000900F550E96E0900F550EA6E090043
:1000600009000900F550836F0900F550846F0900FD
:100070000900F6CF87F0F7CF88F0F8CF89F080C07D
:10008000F6FF81C0F7FF82C0F8FF0001835302E151
:10009000845307E00900F550EE6E8307F8E2840709
:1000A000F9D787C0F6FF88C0F7FF89C0F8FF0001C5
:0A00B0008507000E865BBFD7120023
:0600BA00DACFE4FFE9CFFC
:1000C000E4FFEACFE4FFE652A19800018F5110E06F
:1000D00090C0E9FF91C0EAFF902B000E9123EF50F2
:1000E000A86E550EA76EAA0EA76EA682A92A8F0724
:1000F000E552E5CFEAFFE5CFE9FFE5CFDAFF1100F2
:10010000D9CFE6FFE1CFD9FFA6B2FED7FE0EDB5076
:10011000A96EFC0EDBCF90F0FD0EDBCF91F0FB0E55
:10012000DBCF8FF0040EA66EA188A088E552E7CF42
:10013000D9FF1200C00EF26E050EE66E8A0EE66E54
:10014000000EE66EE66ADCDFE552E552E552E55266
:02015000FFD7D7
:0E01520014EE00F024EE00F0F86A019C0EECB2
:0E01600000F003EC00F09AEC00F0FBD7120068
:02016E0000EEA1
:0C01700000F00F0EEE6AEA62FDD71200EC
:04017C00123456786B
:010180009AE4
:020000040030CA
:0100010001FD
:0100020018E5
:010003001EDE
:010005008377
:010006008178
:00000001FF
