:020000040000FA
:060000007FEF00F012008A
:020006000000F8
:08000800060EF66E000EF76E05
:10001000000EF86E00010900F550856F0900F550DB
:10002000866F03E1856701D03DD00900F550806FF0
:100030000900F550816F0900F550826F0900090031
:10004000F550E96E0900F550EA6E09000900090053
:10005000F550836F0900F550846F09000900F6CF51
:1000600087F0F7CF88F0F8CF89F080C0F6FF81C025
:10007000F7FF82C0F8FF0001835302E1845307E0D9
:100080000900F550EE6E8307F8E28407F9D787C0C0
:10009000F6FF88C0F7FF89C0F8FF00018507000E52
:0600A000865BBFD71200D1
:0A00A600D9CFE6FFE1CFD9FFE65203
:1000B000FD0EDB50F86EFC0EDB50F76EFB0EDB50D6
:1000C000F66E940EA66EF250DF6EF26A550EA76EB3
:1000D000AA0EA76EA6820000A694DF50F26EE5522B
:1000E000E552E7CFD9FF1200E66A040EE66EE66A33
:0E00F000E66AD9DFE552E552E552E552FFD748
:0200FE0014EEFE
:1001000000F024EE00F0F86A019C04EC00F094EC9E
:0A01100000F074EC00F0FBD71200C1
:06011A0000EE00F00F0EE4
:08012000EE6AEA62FDD712004D
:020128001200C3
:100400000A141E28324573746120E920756D61203D
:07041000737472696E67004E
:020000040030CA
:0100010001FD
:0100020018E5
:010003001EDE
:010005008377
:0100060001F8
:00000001FF
