:020000040000FA
:0600000077EF00F0120092
:020006000000F8
:08000800060EF66E000EF76E05
:10001000000EF86E00010900F550856F0900F550DB
:10002000866F03E1856701D03DD00900F550806FF0
:100030000900F550816F0900F550826F0900090031
:10004000F550E96E0900F550EA6E09000900090053
:10005000F550836F0900F550846F09000900F6CF51
:1000600087F0F7CF88F0F8CF89F080C0F6FF81C025
:10007000F7FF82C0F8FF0001835302E1845307E0D9
:100080000900F550EE6E8307F8E28407F9D787C0C0
:10009000F6FF88C0F7FF89C0F8FF00018507000E52
:0600A000865BBFD71200D1
:0A00A600D9CFE6FFE1CFD9FF020E2B
:1000B000E126DF68DF5009E0010EDB68DB5003E07A
:1000C000010EDB06FBD7DF06F5D7020EE15C02E28C
:1000D000E16AE552E16EE552E7CFD9FF1200939055
:0E00E0000F0EC16E8A80DFDF8A90DDDFFBD756
:0200EE0014EE0E
:1000F00000F024EE00F0F86A019C04EC00F08CECB7
:0A01000000F06FEC00F0FBD71200D6
:06010A0000EE00F00F0EF4
:08011000EE6AEA62FDD712005D
:020118001200D3
:020000040030CA
:0100010001FD
:010002001EDF
:010003001EDE
:0100050003F7
:010006008178
:00000001FF
