:020000040000FA
:0600000053EF00F01200B6
:020006000000F8
:08000800060EF66E000EF76E05
:10001000000EF86E00010900F550856F0900F550DB
:10002000866F03E1856701D03DD00900F550806FF0
:100030000900F550816F0900F550826F0900090031
:10004000F550E96E0900F550EA6E09000900090053
:10005000F550836F0900F550846F09000900F6CF51
:1000600087F0F7CF88F0F8CF89F080C0F6FF81C025
:10007000F7FF82C0F8FF0001835302E1845307E0D9
:100080000900F550EE6E8307F8E28407F9D787C0C0
:10009000F6FF88C0F7FF89C0F8FF00018507000E52
:0600A000865BBFD71200D1
:0A00A60014EE00F024EE00F0F86AFA
:1000B000019C04EC00F07EEC00F06DEC00F0FBD74E
:0200C00012002C
:0E00C2000A141E28324573746120E920756D02
:0900D0006120737472696E67000F
:0600DA003F0EF86EF7680E
:0E00E000FE0EF66E0900F5CF8AF0FFD7120073
:0200EE0000EE22
:0C00F00000F00F0EEE6AEA62FDD712006D
:0200FC001200F0
:020000040030CA
:0100010001FD
:0100020018E5
:010003001EDE
:010005008377
:0100060001F8
:00000001FF
