:020000040000FA
:060000007DEF00F012008C
:020006000000F8
:08000800060EF66E000EF76E05
:10001000000EF86E00010900F550856F0900F550DB
:10002000866F03E1856701D03DD00900F550806FF0
:100030000900F550816F0900F550826F0900090031
:10004000F550E96E0900F550EA6E09000900090053
:10005000F550836F0900F550846F09000900F6CF51
:1000600087F0F7CF88F0F8CF89F080C0F6FF81C025
:10007000F7FF82C0F8FF0001835302E1845307E0D9
:100080000900F550EE6E8307F8E28407F9D787C0C0
:10009000F6FF88C0F7FF89C0F8FF00018507000E52
:0600A000865BBFD71200D1
:0A00A600D9CFE6FFE1CFD9FF020E2B
:1000B000E126DF68DF500DE081A2D37881A49B7C2C
:1000C000010EDB68DB5003E0010EDB06FBD7DF0629
:1000D000F1D7020EE15C02E2E16AE552E16EE5521F
:1000E000E7CFD9FF1200700ED36E93900F0EC16E42
:0A00F0008A80D9DF8A90D7DFFBD7A2
:0600FA0014EE00F024EEFC
:1001000000F0F86A019C04EC00F092EC00F073EC53
:0601100000F0FBD7120015
:0A01160000EE00F00F0EEE6AEA6240
:04012000FDD71200F5
:020124001200C7
:020000040030CA
:0100010008F6
:0100020018E5
:010003001EDE
:010005008377
:010006008178
:00000001FF
