:020000040000FA
:060000001DEF0BF01200E1
:020006001200E6
:0600080011EF06F01200EA
:06001800F0EF05F01200FC
:02001E000100DF
:0C002000641600008000000029000000B1
:04002C005370726932
:100030006E673A643D31362C6F3D362C623D31326D
:10004000353A38652C3867232C3867232C386723DA
:100050002C66232C652C34622E2C622C612C386784
:10006000232C3867232C3867232C66232C652C34EB
:10007000622E2C622C612C3867232C612C622C3868
:10008000612C3867232C3866232C3864232C346287
:100090002E2C38652C3867232C3867232C3867239F
:1000A0002C66232C652C34622E2C622C612C386734
:1000B000232C3867232C3867232C66232C652C349B
:1000C000622E2C622C612C3867232C612C622C3818
:1000D000612C3867232C3866232C3864232C346237
:1000E0002E00417574756D6E3A643D382C6F3D3647
:1000F0002C623D3132353A612C612C612C61232C0C
:1001000034612C612C61232C612C612C612C6123C6
:100110002C34612C612C61232C612C3136672C31FD
:1001200036612C61232C612C672E2C3136702C61AA
:100130002C612C612C61232C34612C612C61232CCB
:10014000612C612C612C61232C34612C612C612386
:100150002C612C3136672C3136612C61232C612CBB
:10016000672E005866696C65733A643D342C6F3DA8
:10017000352C623D3132353A652C622C612C622C73
:1001800064362C32622E2C31702C652C622C612C42
:10019000622C65362C32622E2C31702C67362C6620
:1001A00023362C65362C64362C65362C32622E2C88
:1001B00031702C67362C6623362C65362C64362C31
:1001C0006623362C32622E2C31702C652C622C6109
:1001D0002C622C64362C32622E2C31702C652C62F1
:1001E0002C612C622C65362C32622E2C31702C65E1
:1001F000362C32622E00456E7465727461696E65CC
:10020000723A643D342C6F3D352C623D3134303AC6
:1002100038642C3864232C38652C63362C38652CD4
:1002200063362C38652C32632E362C3863362C38E6
:1002300064362C386423362C3865362C3863362CDB
:100240003864362C65362C38622C64362C32633692
:100250002C702C38642C3864232C38652C63362C95
:1002600038652C63362C38652C32632E362C38706A
:100270002C38612C38672C3866232C38612C386375
:10028000362C65362C3864362C3863362C38612C85
:10029000326436004261726269656769726C3A6401
:1002A0003D342C6F3D352C623D3132353A38672371
:1002B0002C38652C3867232C386323362C612C703E
:1002C0002C3866232C3864232C3866232C38622C77
:1002D00067232C3866232C38652C702C38652C3815
:1002E00063232C66232C63232C702C3866232C3834
:1002F000652C67232C6623005368653A643D3136CC
:100300002C6F3D352C623D36333A3332622C3463E8
:10031000362C63362C63362C38622C3864362C38F5
:1003200063362E2C38622C612C3332622C326336C9
:100330002C702C63362C63362C622C3864362C38A7
:1003400063362C38622C612C3463362E2C3863369D
:100350002C622C333263362C3464362C3863362EC0
:100360002C622C38612C38672C38662E2C652C6654
:100370002C652C3332662C32672C38700054616B3C
:10038000654F6E4D653A643D342C6F3D342C623DB3
:100390003136303A386623352C386623352C3866AA
:1003A00023352C3864352C38702C38622C38702C5E
:1003B0003865352C38702C3865352C38702C3865FC
:1003C000352C386723352C386723352C3861352C8C
:1003D0003862352C3861352C3861352C3861352C34
:1003E0003865352C38702C3864352C38702C3866CC
:1003F00023352C38702C386623352C38702C386611
:1004000023352C3865352C3865352C386623352C4A
:100410003865352C386623352C386623352C3866FC
:1004200023352C3864352C38702C38622C38702CDD
:100430003865352C38702C3865352C38702C38657B
:10044000352C386723352C386723352C3861352C0B
:100450003862352C3861352C3861352C3861352CB3
:100460003865352C38702C3864352C38702C38664B
:1004700023352C38702C386623352C38702C386690
:1004800023352C3865352C386535004761726F741B
:10049000614970616E656D613A643D342C6F3D3524
:1004A0002C623D3136303A672E2C38652C38652C5D
:1004B000642C672E2C38652C652C38652C38642C00
:1004C000672E2C652C652C38642C672C38672C38EB
:1004D000652C652C38652C38642C662C642C642CB7
:1004E00038642C38632C652C632C632C38632C61A6
:1004F00023342C326300496E6469616E613A643D55
:10050000342C6F3D352C623D3235303A652C3870D5
:100510002C38662C38672C38702C3163362C3870A8
:100520002E2C642C38702C38652C31662C702E2CB7
:10053000672C38702C38612C38622C38702C31665E
:10054000362C702C612C38702C38622C3263362C8F
:100550003264362C3265362C652C38702C38662C7B
:1005600038672C38702C3163362C702C64362C385C
:10057000702C3865362C31662E362C672C38702C52
:1005800038672C652E362C38702C64362C38702C3D
:1005900038672C652E362C38702C64362C38702C2D
:1005A00038672C662E362C38702C65362C38702C1B
:1005B0003864362C3263360054686553696D707345
:1005C0006F6E733A643D342C6F3D352C623D31368D
:1005D000303A632E362C65362C6623362C3861363D
:1005E0002C672E362C65362C63362C38612C3866F9
:1005F000232C3866232C3866232C32672C38702C39
:1006000038702C3866232C3866232C3866232C3817
:10061000672C61232E2C3863362C3863362C3863D4
:10062000362C6336004164616D7366616D696C7967
:100630003A643D342C6F3D352C623D3136303A38CA
:10064000632C662C38612C662C38632C62342C3277
:10065000672C38662C652C38672C652C3865342C53
:1006600061342C32662C38632C662C38612C662C55
:1006700038632C62342C32672C38662C652C386336
:100680002C642C38652C31662C38632C38642C385B
:10069000652C38662C31702C38642C38652C386603
:1006A000232C38672C31702C38642C38652C386634
:1006B000232C38672C702C38642C38652C38662332
:1006C0002C38672C702C38632C38642C38652C3807
:1006D0006600436F756E74646F776E3A643D342CB8
:1006E0006F3D352C623D3132353A702C38702C31EB
:1006F00036622C3136612C622C652C702C38702CB3
:10070000313663362C3136622C3863362C38622C05
:10071000612C702C38702C313663362C3136622CBB
:1007200063362C652C702C38702C3136612C3136A8
:10073000672C38612C38672C3866232C38612C677D
:100740002E2C313666232C3136672C612E2C313617
:10075000672C3136612C38622C38612C38672C3884
:1007600066232C652C63362C32622E2C3136622C9B
:10077000313663362C3136622C3136612C316200D1
:1007800050696E6B70616E746865723A643D3136A3
:100790002C6F3D352C623D3136303A3864232C388D
:1007A000652C32702C3866232C38672C32702C382C
:1007B00064232C38652C702C3866232C38672C70F9
:1007C0002C3863362C38622C702C3864232C386516
:1007D0002C702C38622C3261232C32702C612C67E7
:1007E0002C652C642C3265004A616D6573626F6EF6
:1007F000643A643D342C6F3D352C623D3332303ADF
:10080000632C38642C38642C642C32642C632C6385
:100810002C632C632C3864232C3864232C326423FF
:100820002C642C642C642C632C38642C38642C6469
:100830002C32642C632C632C632C632C3864232CA3
:100840003864232C64232C3264232C642C63232CE3
:10085000632C63362C31622E2C672C662C31672E6C
:1008600000486F67616E733A643D31362C6F3D36D8
:100870002C623D34353A66352E2C6723352E2C6399
:10088000232E2C662E2C66232C333267232C3332F6
:1008900066232E2C3332662E2C3864232E2C6623AE
:1008A0002C333267232C333266232E2C3332662EC0
:1008B0002C64232E2C6723352E2C63232C33326398
:1008C0002C333263232E2C33326123352E2C3867A0
:1008D00023352E2C66352E2C6723352E2C63232EA4
:1008E0002C66352E2C33326623352E2C6123352E83
:1008F0002C33326623352E2C64232E2C66232E2C8B
:100900003332662E2C67232E2C3332662E2C632333
:100910002E2C64232E2C3863232E004178656C66C0
:100920003A643D382C6F3D352C623D3136303A34D7
:1009300066232C612E2C66232C313666232C6123F2
:100940002C66232C652C3466232C63362E2C6623D0
:100950002C313666232C64362C6323362C612C66AE
:10096000232C6323362C6623362C313666232C65E4
:100970002C3136652C63232C67232C3466232E0000
:100980004261746D616E3A643D382C6F3D352C6266
:100990003D3136303A3136612C313667232C3136D1
:1009A000672C313666232C3136662C313666232C83
:1009B0003136672C313667232C34612E2C702C6431
:1009C0002C642C63232C63232C632C632C63232C37
:1009D00063232C642C642C63232C63232C632C63EF
:1009E0002C63232C63232C642C642C63232C63231F
:1009F0002C632C632C63232C63232C67362C702CE4
:100A00003467360045543A643D322C6F3D362C62D3
:100A10003D3230303A642C612C38672C3866232CF8
:100A200038652C3866232C642C3161352C62352CCA
:100A3000622C38612C3867232C3866232C386723C6
:100A40002C652C316323372C652C64372C386323B9
:100A5000372C38622C38612C38672C662C642E2C8D
:100A60003136642C313663232C3136642C313665B3
:100A70002C662C642C64372C31632337004D69734A
:100A800073696F6E496D703A643D342C6F3D362C3E
:100A9000623D3135303A313664352C313664233598
:100AA0002C313664352C31366423352C313664359F
:100AB0002C31366423352C313664352C313664358F
:100AC0002C31366423352C313665352C313666357C
:100AD0002C31366623352C313667352C3867352C6A
:100AE00034702C3867352C34702C386123352C3811
:100AF000702C3863362C38702C3867352C34702CB9
:100B00003867352C34702C3866352C38702C38709A
:100B10002C3867352C34702C34702C386123352CEC
:100B200038702C3863362C38702C3867352C34707C
:100B30002C34702C3866352C38702C386623352CC4
:100B400038702C386123352C3867352C31643500EA
:100B500055324E657779656172733A643D382C6F12
:100B60003D362C623D3132353A61352C61352C638E
:100B70002C3461352C61352C61352C61352C632C7E
:100B8000632C652C34632C632C632C652C652C65DD
:100B90002C672C34652C652C652C61352C652C65F7
:100BA0002C672C652C652C652C652C652C61352CEF
:100BB00061352C632C61352C61352C61352C613508
:100BC0002C632C632C652C632C632C632C652C65A7
:0F0BD0002C652C672C652C652C652C326135004B
:100BE000D8CFE4FFE0CFE4FFE46EDACFE4FFE652D3
:100BF0009E94E80EBE26030EBF220001B551B61129
:100C000004E0B507000EB65B03D0A0900001A86B0E
:100C1000E552E5CFDAFFE550E5CFE0FFE5CFD8FFBD
:100C20001000DACFE4FFE652897AA1900001B351B7
:100C3000BB26B451BC22E552E5CFDAFF1100D9CF73
:100C4000E6FFE1CFD9FF0001A851FDE1FD0EDBCFAA
:100C500016F0FE0EDBCF17F0186A400E136E420E30
:100C6000146E0F0E156E13C007F014C008F0096E55
:100C700016C00CF017C00DF018C00EF0D3EC0AF03F
:100C800007C010F008C011F009C012F0020E0C6E7F
:100C90000D6A0E6AD3EC0AF007C0B3F008C0B4F0D6
:100CA000FB0EDBCFB5F0FC0EDBCFB6F0A080000171
:100CB000010EA86FE552E7CFD9FF1200D9CFE6FFAA
:100CC000E1CFD9FF060EE1260001040EB96F3F0EF9
:100CD000B76FB86B060EBA6FFD0EDBCFF6FFFE0ED8
:100CE000DBCFF7FF0800F5503A0806E0FD0EDB2ADF
:100CF000FE0EF2E3DB2AF0D7FD0EDB2AFE0E01E347
:100D0000DB2AFD0EDBCFF6FFFE0EDBCFF7FF080080
:100D1000F5503A0801E1DED1FD0EDBCFF6FFFE0E05
:100D2000DBCFF7FF0800F550640801E088D0000130
:100D3000B96BFD0EDB2AFE0E01E3DB2AFD0EDBCFD5
:100D4000F6FFFE0EDBCFF7FF0800F5503D0806E189
:100D5000FD0EDB2AFE0EF2E3DB2AF0D7FD0EDBCF21
:100D6000F6FFFE0EDBCFF7FF0800F550200806E186
:100D7000FD0EDB2AFE0EF2E3DB2AF0D7FD0EDBCF01
:100D8000F6FFFE0EDBCFF7FF0800F5CF10F0300EB8
:100D9000105C15E3FD0EDBCFF6FFFE0EDBCFF7FF99
:100DA0000800F55039080BE3FD0EDBCFF6FFFE0E11
:100DB000DBCFF7FF0800F550D00F0001B96FFD0E33
:100DC000DB2AFE0E01E3DB2AFD0EDBCFF6FFFE0E73
:100DD000DBCFF7FF0800F5CF10F0300E105C1FE3FB
:100DE000FD0EDBCFF6FFFE0EDBCFF7FF0800F55060
:100DF000390815E3FD0EDBCFF6FFFE0EDBCFF7FF64
:100E00000800F550D00F106E0A0E0001B903F35020
:100E10001024B96FFD0EDB2AFE0E01E3DB2AFD0E66
:100E2000DBCFF6FFFE0EDBCFF7FF0800F5502C08F6
:100E300006E1FD0EDB2AFE0EF2E3DB2AF0D7FD0E03
:100E4000DBCFF6FFFE0EDBCFF7FF0800F5506F0893
:100E50005DE10001BA6BFD0EDB2AFE0E01E3DB2A29
:100E6000FD0EDBCFF6FFFE0EDBCFF7FF0800F550DF
:100E70003D0806E1FD0EDB2AFE0EF2E3DB2AF0D789
:100E8000FD0EDBCFF6FFFE0EDBCFF7FF0800F550BF
:100E9000200806E1FD0EDB2AFE0EF2E3DB2AF0D786
:100EA000FD0EDBCFF6FFFE0EDBCFF7FF0800F5CF20
:100EB00010F0300E105C15E3FD0EDBCFF6FFFE0EDA
:100EC000DBCFF7FF0800F55039080BE3FD0EDBCF51
:100ED000F6FFFE0EDBCFF7FF0800F550D00F000144
:100EE000BA6FFD0EDB2AFE0E01E3DB2AFD0EDBCF1F
:100EF000F6FFFE0EDBCFF7FF0800F5502C0806E1E9
:100F0000FD0EDB2AFE0EF2E3DB2AF0D7FD0EDBCF6F
:100F1000F6FFFE0EDBCFF7FF0800F550620801E098
:100F2000C8D00001B76BB86BFD0EDB2AFE0E01E3E3
:100F3000DB2AFD0EDBCFF6FFFE0EDBCFF7FF08004E
:100F4000F5503D0806E1FD0EDB2AFE0EF2E3DB2A3A
:100F5000F0D7FD0EDBCFF6FFFE0EDBCFF7FF08006C
:100F6000F550200806E1FD0EDB2AFE0EF2E3DB2A37
:100F7000F0D7FD0EDBCFF6FFFE0EDBCFF7FF08004C
:100F8000F5CF10F0300E105C16E3FD0EDBCFF6FF50
:100F9000FE0EDBCFF7FF0800F55039080CE3FD0E1D
:100FA000DBCFF6FFFE0EDBCFF7FF0800F550D00FCA
:100FB0000001B76FB86BFD0EDB2AFE0E01E3DB2AE2
:100FC000FD0EDBCFF6FFFE0EDBCFF7FF0800F5CFFF
:100FD00010F0300E105C5DE3FD0EDBCFF6FFFE0E71
:100FE000DBCFF7FF0800F550390853E3B7C010F026
:100FF000B8C011F00A0E1102F3CF11F01002F45034
:101000001126FD0EDBCFF6FFFE0EDBCFF7FF08004B
:10101000F550D00F0001F324B76F000E1120B86F08
:10102000FD0EDB2AFE0E01E3DB2AFD0EDBCFF6FF11
:10103000FE0EDBCFF7FF0800F5CF10F0300E105C8E
:1010400028E3FD0EDBCFF6FFFE0EDBCFF7FF080037
:10105000F55039081EE3B7C010F0B8C011F00A0E01
:101060001102F3CF11F01002F4501126FD0EDBCF68
:10107000F6FFFE0EDBCFF7FF0800F550D00FF3248C
:10108000B76F000E1120B86FFD0EDB2AFE0E01E3D4
:10109000DB2AFD0EDBCFF6FFFE0EDBCFF7FF0800ED
:1010A000F5502C0806E1FD0EDB2AFE0EF2E3DB2AEA
:1010B000F0D7FD0EDBCFF6FFFE0EDBCFF7FF08000B
:1010C000F5502C0801E01DD6FD0EDB2AFE0EF1E3E3
:1010D000DB2AEFD7FD0EDB2AFE0E01E3DB2AFD0E35
:1010E000DBCFF6FFFE0EDBCFF7FF0800F55001E186
:1010F00091D1020EDB68010EBAC0DBFFB9C0DFFF81
:10110000030EDB6AFD0EDBCFF6FFFE0EDBCFF7FF33
:101110000800F5CF10F0300E105C43E3FD0EDBCF7E
:10112000F6FFFE0EDBCFF7FF0800F550390839E374
:10113000FD0EDBCFF6FFFE0EDBCFF7FF0800F5500C
:10114000D00FDF6EFD0EDB2AFE0E01E3DB2AFD0E63
:10115000DBCFF6FFFE0EDBCFF7FF0800F5CF10F078
:10116000300E105C1EE3FD0EDBCFF6FFFE0EDBCF74
:10117000F7FF0800F550390814E3FD0EDBCFF6FF4A
:10118000FE0EDBCFF7FF0800F550D00F106E0A0EF1
:10119000DF02F3501024DF6EFD0EDB2AFE0E01E3AA
:1011A000DB2AFD0EDBCFF6FFFE0EDBCFF7FF0800DC
:1011B000F550700A22E0120A1AE0030A16E0060A45
:1011C00012E0010A0EE0030A0AE0010A05E0070A3C
:1011D00016E1020EDB6A13D0020EF36E0BD0040E82
:1011E00007D0050E05D0070E03D0090E01D00B0E57
:1011F000F36E020EF3CFDBFF02D0020EDB68FD0EB2
:10120000DB2AFE0E01E3DB2AFD0EDBCFF6FFFE0E2E
:10121000DBCFF7FF0800F550230807E1020EDB2AB9
:10122000FD0EDB2AFE0E01E3DB2AFD0EDBCFF6FF0F
:10123000FE0EDBCFF7FF0800F5502E080AE1010E85
:10124000F36E030EF3CFDBFFFD0EDB2AFE0E01E390
:10125000DB2AFD0EDBCFF6FFFE0EDBCFF7FF08002B
:10126000F5CF10F0300E105C1CE3FD0EDBCFF6FF67
:10127000FE0EDBCFF7FF0800F550390812E3FD0E34
:10128000DBCFF6FFFE0EDBCFF7FF0800F550D00FE7
:10129000E76E010EE7CFDBFFFD0EDB2AFE0E01E35A
:1012A000DB2AFD0EDBCFF6FFFE0EDBCFF7FF0800DB
:1012B000F5502E080AE1010EF36E030EF3CFDBFFAB
:1012C000FD0EDB2AFE0E01E3DB2AFD0EDBCFF6FF6F
:1012D000FE0EDBCFF7FF0800F5502C0806E1FD0EEF
:1012E000DB2AFE0EF2E3DB2AF0D7DFCF16F0176A17
:1012F000186AB7C013F0B8C014F0156A600E106E0B
:10130000EA0E116E126A10C007F0086E12C009F0E2
:10131000B7C00CF0B8C00DF015C00EF0D3EC0AF059
:1013200016C00CF017C00DF018C00EF0D3EC0AF088
:10133000040E07C0DBFF050E08C0DBFFD950040F09
:10134000E96EDACFEAFF020ED890EE36ED36E80607
:10135000FBE1030EDB501DE0040EDBCF10F0050EA9
:10136000DBCF11F0030E1102F3CF11F01002F3CF17
:1013700010F0F4501126010E0F0B05E0D890113239
:101380001032E806FBE1040E10C0DBFF050E11C0B1
:10139000DBFF020EDB50106E116AD890115004E68C
:1013A000FF0E105C000E115827E2040EDBCFE6FFA3
:1013B000050EDBCFE6FF010EDB50FC0F180DF3CF5F
:1013C00010F0F4CF11F0460E1026150E1122020E69
:1013D000DB50020D1050F324F66E1150F420F76E1E
:1013E0000900F5CFE6FF0800F5CFE6FF28DCE5525F
:1013F000E552E552E55209D0040EDBCFB5F0050EFB
:10140000DBCFB6F00001010EA86F0001A85101E189
:1014100066D6FBD7060EE15C02E2E16AE552E16EB8
:10142000E552E7CFD9FF1200070EB46E0F0EC16E62
:10143000929A010ECD6E0A0EBD6EBA6E9D849F9477
:10144000800ED06EC00EF26E1200D9CFE6FFE1CF53
:10145000D9FFE652E9DFDF6A140EDF5CFCE2FA0E28
:101460000001B56FB66B0001010EA86FA851FEE137
:10147000EA6ADF34FE0BEA36E96E800EE926000EDA
:10148000EA22EECFE6FFEFCFE6FF18DCE552E552A9
:101490000001D00EB56F070EB66F0001010EA86FE8
:0814A000A851FEE1DF2AD8D7B4
:0814A8001E0EF66E000EF76E39
:1014B000000EF86E00010900F550AE6F0900F550FE
:1014C000AF6F03E1AE6701D03DD00900F550A96FC1
:1014D0000900F550AA6F0900F550AB6F090009002B
:1014E000F550E96E0900F550EA6E0900090009009F
:1014F000F550AC6F0900F550AD6F09000900F6CF4B
:10150000B0F0F7CFB1F0F8CFB2F0A9C0F6FFAAC0A3
:10151000F7FFABC0F8FF0001AC5302E1AD5307E0A9
:101520000900F550EE6EAC07F8E2AD07F9D7B0C090
:10153000F6FFB1C0F7FFB2C0F8FF0001AE07000E22
:06154000AF5BBFD71200F3
:0A15460006011501260137014A01D4
:101550005D01720188019F01B801D201EE010B0209
:101560002A024B026E029302BA02E40210033E0307
:101570007003A403DC03170455049704DC04270557
:101580007505C80520067C06E0064907B8072D0842
:10159000AA082D09B9094D0AEA0A900B400CF80C6B
:0615A000C00D900E6F0F5C
:0A15A600006A0EAEDEEF0AF00C6CD6
:1015B0000D1E0E1EE86A0D220E22001E09AEE8EF77
:1015C0000AF0076C081E091EE86A08220922001E9C
:1015D00000EC0BF009BEFBEF0AF000AE000C076C4C
:1015E000081E091EE86A08220922036C041E051E53
:1015F00004220522000C00BEEFEF0AF00188FF0C68
:10160000056A046A036A180EE76ED8900736083632
:1016100009360336043605360C50035C0D50045869
:101620000E50055807E30C50035E0D50045A0E503F
:0A163000055A072AE72EEAD7120038
:06163A0014EE00F024EEA6
:1016400000F0F86A019C54EC0AF003EC00F025EC81
:061650000AF0FBD71200B6
:0A16560000EE00F00F0EEE6AEA62EB
:04166000FDD71200A0
:0C166400500B7D0A040A80091B09610874
:10167000E8078007D2062506B805F6048B047D032B
:0D168000F8029402F6016301E2002C000064
:020000040030CA
:0100010001FD
:0100020018E5
:010003001EDE
:010005008377
:0100060001F8
:00000001FF
