:020000040000FA
:0600000060EF00F01200A9
:020006000000F8
:08000800DACFE4FFE652F294A6
:10001000850ED76EEE0ED66E8A70E552E5CFDAFF0A
:020020001100CD
:0E002200060EF66E000EF76E000EF86E000170
:100030000900F550856F0900F550866F03E185676B
:1000400001D03DD00900F550806F0900F550816F57
:100050000900F550826F09000900F550E96E0900AA
:10006000F550EA6E090009000900F550836F090098
:10007000F550846F09000900F6CF87F0F7CF88F0BC
:10008000F8CF89F080C0F6FF81C0F7FF82C0F8FF8B
:100090000001835302E1845307E00900F550EE6E3E
:1000A0008307F8E28407F9D787C0F6FF88C0F7FF17
:1000B00089C0F8FF00018507000E865BBFD71200DC
:1000C00014EE00F024EE00F0F86A019C11EC00F050
:0C00D00081EC00F06EEC00F0FBD7120099
:0400DC000F0EC16ED4
:1000E0009390850ED76EEE0ED66E840ED56EA00E52
:0400F000F26EFFD7D6
:0C00F40000EE00F00F0EEE6AEA62FDD78D
:020100001200EB
:020102001200E9
:020000040030CA
:0100010001FD
:0100020018E5
:010003001EDE
:0100050003F7
:010006008178
:00000001FF
