:020000040000FA
:0600000086EF00F0120083
:020006000000F8
:08000800060EF66E000EF76E05
:10001000000EF86E00010900F550856F0900F550DB
:10002000866F03E1856701D03DD00900F550806FF0
:100030000900F550816F0900F550826F0900090031
:10004000F550E96E0900F550EA6E09000900090053
:10005000F550836F0900F550846F09000900F6CF51
:1000600087F0F7CF88F0F8CF89F080C0F6FF81C025
:10007000F7FF82C0F8FF0001835302E1845307E0D9
:100080000900F550EE6E8307F8E28407F9D787C0C0
:10009000F6FF88C0F7FF89C0F8FF00018507000E52
:0600A000865BBFD71200D1
:0A00A600936A8A6A020EB46E12001B
:1000B000D9CFE6FFE1CFD9FF020EE1260F0EDF6EAA
:1000C000E00EB56EDF5011E0DF50B51ADE520A0EB9
:1000D000DD6E010EDB5003E0010EDB06FAD7B4AE95
:1000E00004D0DF50B51ADF06EDD7DF50026E020EE6
:1000F000E15C02E2E16AE552E16E0250E552E7CFCF
:0C010000D9FF1200D0DFD4DF8A6EFDD7DB
:04010C0014EE00F0FD
:1001100024EE00F0F86A019C04EC00F09BEC00F087
:0801200082EC00F0FBD7120095
:0801280000EE00F00F0EEE6A7C
:06013000EA62FDD7120097
:020136001200B5
:020000040030CA
:0100010001FD
:0100020018E5
:010003001EDE
:010005008377
:0100060001F8
:00000001FF
