:020000040000FA
:060000007AEF00F012008F
:020006000000F8
:08000800F2A202D05CEF00F04F
:0A001000F0A002D065EF00F012002E
:06001A00060EF66E000E5A
:10002000F76E000EF86E00010900F550856F0900AB
:10003000F550866F03E1856701D03DD00900F5508A
:10004000806F0900F550816F0900F550826F09003B
:100050000900F550E96E0900F550EA6E0900090043
:100060000900F550836F0900F550846F09000900FD
:10007000F6CF87F0F7CF88F0F8CF89F080C0F6FF91
:1000800081C0F7FF82C0F8FF0001835302E184536F
:1000900007E00900F550EE6E8307F8E28407F9D710
:1000A00087C0F6FF88C0F7FF89C0F8FF0001850709
:0800B000000E865BBFD71200B1
:0800B800DACFE4FFE652F292F8
:1000C0008A84E552E5CFDAFF1100DACFE4FFE65289
:1000D000F0908A94E552E5CFDAFF11000F0EC16E61
:1000E000030E936EF19E080EF06E800EF16E900E70
:0400F000F26EFFD7D6
:0C00F40014EE00F024EE00F0F86A019C0D
:100100000DEC00F08FEC00F06EEC00F0FBD712006D
:0E01100000EE00F00F0EEE6AEA62FDD712005C
:02011E001200CD
:020000040030CA
:0100010001FD
:0100020018E5
:010003001EDE
:010005008377
:010006008178
:00000001FF
