:020000040000FA
:060000006CEF00F012009D
:020006000000F8
:08000800060EF66E000EF76E05
:10001000000EF86E00010900F550856F0900F550DB
:10002000866F03E1856701D03DD00900F550806FF0
:100030000900F550816F0900F550826F0900090031
:10004000F550E96E0900F550EA6E09000900090053
:10005000F550836F0900F550846F09000900F6CF51
:1000600087F0F7CF88F0F8CF89F080C0F6FF81C025
:10007000F7FF82C0F8FF0001835302E1845307E0D9
:100080000900F550EE6E8307F8E28407F9D787C0C0
:10009000F6FF88C0F7FF89C0F8FF00018507000E52
:0600A000865BBFD71200D1
:0A00A600D9CFE6FFE1CFD9FFFE0E2F
:1000B000DB50A96E010EA66EA850E552E7CFD9FF1E
:1000C0001200E66AF0DFE55200018A6F050EE66E67
:0800D000EADF00018A6FFFD78F
:0800D80014EE00F024EE00F02C
:1000E000F86A019C04EC00F081EC00F061EC00F097
:0400F000FBD7120028
:0C00F40000EE00F00F0EEE6AEA62FDD78D
:020100001200EB
:020102001200E9
:020000040030CA
:0100010001FD
:0100020018E5
:010003001EDE
:010005008377
:010006008178
:0200000400F00A
:0B0000000001020304546573746500E6
:00000001FF
