:020000040000FA
:06000000A8EF00F0120061
:020006000000F8
:08000800D9CFE6FFE1CFD9FFDB
:10001000020EE126FD0EDB50F86EFC0EDB50F76E93
:10002000FB0EDB50F66E1F0E006E016A026A036A59
:10003000D950FB0FE96EFF0EDA20EA6EEE50001683
:10004000EE500116EE500216EE500316010E00C0DF
:10005000DBFFF568010EDBCFF3FFDB06F350000991
:1000600002E00D00F7D7FA0EDB50F56E0D00840E9E
:10007000A66EF250DF6EF26A550EA76EAA0EA76E3C
:10008000A6820000A694DF50F26E020EE15C02E24E
:10009000E16AE552E16EE552E7CFD9FF1200AB0EFF
:1000A000E66E020EE66E040EE66EE66AE66AACDF07
:0200B000FFD778
:0E00B200060EF66E000EF76E000EF86E0001E0
:1000C0000900F550856F0900F550866F03E18567DB
:1000D00001D03DD00900F550806F0900F550816FC7
:1000E0000900F550826F09000900F550E96E09001A
:1000F000F550EA6E090009000900F550836F090008
:10010000F550846F09000900F6CF87F0F7CF88F02B
:10011000F8CF89F080C0F6FF81C0F7FF82C0F8FFFA
:100120000001835302E1845307E00900F550EE6EAD
:100130008307F8E28407F9D787C0F6FF88C0F7FF86
:1001400089C0F8FF00018507000E865BBFD712004B
:1001500014EE00F024EE00F0F86A059C59EC00F073
:0C016000BDEC00F04FEC00F0FBD71200EB
:04016C0000EE00F0B1
:0A0170000F0EEE6AEA62FDD71200DE
:02017A00120071
:020000040030CA
:0100010001FD
:0100020018E5
:010003001EDE
:010005008377
:0100060001F8
:00000001FF
