:020000040000FA
:100000006D28A0000A30A00700300318013E8A00C6
:1000100020088200BF348634DB34CF34E634ED343C
:10002000FD348734FF34E734F734FC34B934DE343C
:10003000F934F134013E031908001A28210801207F
:100040008600861303011A208617220801208600E5
:10005000051303011A2005172308012086008513C4
:1000600003011A2085170800A100A201A301643032
:100070002102031C3E28A100A30A37280A302102CE
:10008000031C0800A100A20A3E288316EC309F0042
:100090008511831205309F000800A501A601A70164
:1000A000A80103309F001F1B5B2800008511A50FCE
:1000B0005E28A60A5F28851500005E285F28A70F26
:1000C0006728A80A28080139031953286A286828CC
:1000D0000000532806309F00080005309F0083165B
:1000E000031306308500860183120313C030850098
:1000F0008617A101A201A3011430A40045201E20EF
:10010000A40B7F281430A4004D20250834207F281C
:02400E00183F59
:00000001FF
