:020000040000FA
:06000000A3EF00F0120066
:020006000000F8
:08000800949C240EAC6E800EE6
:10001000AB6E190EAF6E1200D9CFE6FFE1CFD9FF5C
:10002000FD0EDBCFE9FFFE0EDBCFEAFFEF5010E065
:100030009EA8FED7FD0EDBCFE9FFFE0EDBCFEAFF69
:10004000EF50AD6EFD0EDB2AFE0EEAE3DB2AE8D7A9
:10005000E552E7CFD9FF1200D9CFE6FFE1CFD9FFB4
:100060000B0EE126D9CFE9FFDACFEAFF4F0EEE6E95
:100070006C0EEE6E610EEE6E200EEE6E4D0EEE6E9E
:10008000750EEE6E6E0EEE6E640EEE6E6F0EEE6E12
:10009000210EEE6EEE6AB8DFD9CFE6FFDACFE6FFCB
:0800A000BBDFE552E552FFD77A
:0800A800060EF66E000EF76E65
:1000B000000EF86E00010900F550856F0900F5503B
:1000C000866F03E1856701D03DD00900F550806F50
:1000D0000900F550816F0900F550826F0900090091
:1000E000F550E96E0900F550EA6E090009000900B3
:1000F000F550836F0900F550846F09000900F6CFB1
:1001000087F0F7CF88F0F8CF89F080C0F6FF81C084
:10011000F7FF82C0F8FF0001835302E1845307E038
:100120000900F550EE6E8307F8E28407F9D787C01F
:10013000F6FF88C0F7FF89C0F8FF00018507000EB1
:06014000865BBFD7120030
:0A01460014EE00F024EE00F0F86A59
:10015000019C54EC00F0B8EC00F02CEC00F0FBD764
:0201600012008B
:0E01620000EE00F00F0EEE6AEA62FDD712000A
:0201700012007B
:020000040030CA
:0100010001FD
:0100020018E5
:010003001EDE
:010005008377
:010006008178
:00000001FF
